{
    "_format": "hh-sol-artifact-1",
    "contractName": "TagContract",
    "sourceName": "contracts/TagContract.sol",
    "abi": [
        {
            "inputs": [],
            "stateMutability": "nonpayable",
            "type": "constructor"
        },
        {
            "anonymous": false,
            "inputs": [
                {
                    "indexed": true,
                    "internalType": "address",
                    "name": "owner",
                    "type": "address"
                },
                {
                    "indexed": true,
                    "internalType": "address",
                    "name": "approved",
                    "type": "address"
                },
                {
                    "indexed": true,
                    "internalType": "uint256",
                    "name": "tokenId",
                    "type": "uint256"
                }
            ],
            "name": "Approval",
            "type": "event"
        },
        {
            "anonymous": false,
            "inputs": [
                {
                    "indexed": true,
                    "internalType": "address",
                    "name": "owner",
                    "type": "address"
                },
                {
                    "indexed": true,
                    "internalType": "address",
                    "name": "operator",
                    "type": "address"
                },
                {
                    "indexed": false,
                    "internalType": "bool",
                    "name": "approved",
                    "type": "bool"
                }
            ],
            "name": "ApprovalForAll",
            "type": "event"
        },
        {
            "anonymous": false,
            "inputs": [
                {
                    "indexed": true,
                    "internalType": "address",
                    "name": "previousOwner",
                    "type": "address"
                },
                {
                    "indexed": true,
                    "internalType": "address",
                    "name": "newOwner",
                    "type": "address"
                }
            ],
            "name": "OwnershipTransferred",
            "type": "event"
        },
        {
            "anonymous": false,
            "inputs": [
                {
                    "indexed": true,
                    "internalType": "address",
                    "name": "from",
                    "type": "address"
                },
                {
                    "indexed": true,
                    "internalType": "address",
                    "name": "to",
                    "type": "address"
                },
                {
                    "indexed": true,
                    "internalType": "uint256",
                    "name": "tokenId",
                    "type": "uint256"
                }
            ],
            "name": "Transfer",
            "type": "event"
        },
        {
            "inputs": [
                {
                    "internalType": "address",
                    "name": "to",
                    "type": "address"
                },
                {
                    "internalType": "uint256",
                    "name": "tokenId",
                    "type": "uint256"
                }
            ],
            "name": "approve",
            "outputs": [],
            "stateMutability": "nonpayable",
            "type": "function"
        },
        {
            "inputs": [
                {
                    "internalType": "address",
                    "name": "owner",
                    "type": "address"
                }
            ],
            "name": "balanceOf",
            "outputs": [
                {
                    "internalType": "uint256",
                    "name": "",
                    "type": "uint256"
                }
            ],
            "stateMutability": "view",
            "type": "function"
        },
        {
            "inputs": [
                {
                    "internalType": "uint256",
                    "name": "_tokenId",
                    "type": "uint256"
                },
                {
                    "internalType": "string",
                    "name": "_collection",
                    "type": "string"
                },
                {
                    "internalType": "string",
                    "name": "_description",
                    "type": "string"
                },
                {
                    "internalType": "string",
                    "name": "_date",
                    "type": "string"
                }
            ],
            "name": "customizeData",
            "outputs": [],
            "stateMutability": "nonpayable",
            "type": "function"
        },
        {
            "inputs": [
                {
                    "internalType": "uint256",
                    "name": "tokenId",
                    "type": "uint256"
                }
            ],
            "name": "getApproved",
            "outputs": [
                {
                    "internalType": "address",
                    "name": "",
                    "type": "address"
                }
            ],
            "stateMutability": "view",
            "type": "function"
        },
        {
            "inputs": [
                {
                    "internalType": "uint256",
                    "name": "_tokenId",
                    "type": "uint256"
                }
            ],
            "name": "getCustomData",
            "outputs": [
                {
                    "internalType": "string",
                    "name": "",
                    "type": "string"
                },
                {
                    "internalType": "string",
                    "name": "",
                    "type": "string"
                },
                {
                    "internalType": "string",
                    "name": "",
                    "type": "string"
                }
            ],
            "stateMutability": "view",
            "type": "function"
        },
        {
            "inputs": [
                {
                    "internalType": "address",
                    "name": "owner",
                    "type": "address"
                },
                {
                    "internalType": "address",
                    "name": "operator",
                    "type": "address"
                }
            ],
            "name": "isApprovedForAll",
            "outputs": [
                {
                    "internalType": "bool",
                    "name": "",
                    "type": "bool"
                }
            ],
            "stateMutability": "view",
            "type": "function"
        },
        {
            "inputs": [],
            "name": "mint",
            "outputs": [],
            "stateMutability": "nonpayable",
            "type": "function"
        },
        {
            "inputs": [],
            "name": "name",
            "outputs": [
                {
                    "internalType": "string",
                    "name": "",
                    "type": "string"
                }
            ],
            "stateMutability": "view",
            "type": "function"
        },
        {
            "inputs": [],
            "name": "owner",
            "outputs": [
                {
                    "internalType": "address",
                    "name": "",
                    "type": "address"
                }
            ],
            "stateMutability": "view",
            "type": "function"
        },
        {
            "inputs": [
                {
                    "internalType": "uint256",
                    "name": "tokenId",
                    "type": "uint256"
                }
            ],
            "name": "ownerOf",
            "outputs": [
                {
                    "internalType": "address",
                    "name": "",
                    "type": "address"
                }
            ],
            "stateMutability": "view",
            "type": "function"
        },
        {
            "inputs": [],
            "name": "renounceOwnership",
            "outputs": [],
            "stateMutability": "nonpayable",
            "type": "function"
        },
        {
            "inputs": [
                {
                    "internalType": "address",
                    "name": "from",
                    "type": "address"
                },
                {
                    "internalType": "address",
                    "name": "to",
                    "type": "address"
                },
                {
                    "internalType": "uint256",
                    "name": "tokenId",
                    "type": "uint256"
                }
            ],
            "name": "safeTransferFrom",
            "outputs": [],
            "stateMutability": "nonpayable",
            "type": "function"
        },
        {
            "inputs": [
                {
                    "internalType": "address",
                    "name": "from",
                    "type": "address"
                },
                {
                    "internalType": "address",
                    "name": "to",
                    "type": "address"
                },
                {
                    "internalType": "uint256",
                    "name": "tokenId",
                    "type": "uint256"
                },
                {
                    "internalType": "bytes",
                    "name": "_data",
                    "type": "bytes"
                }
            ],
            "name": "safeTransferFrom",
            "outputs": [],
            "stateMutability": "nonpayable",
            "type": "function"
        },
        {
            "inputs": [
                {
                    "internalType": "address",
                    "name": "operator",
                    "type": "address"
                },
                {
                    "internalType": "bool",
                    "name": "approved",
                    "type": "bool"
                }
            ],
            "name": "setApprovalForAll",
            "outputs": [],
            "stateMutability": "nonpayable",
            "type": "function"
        },
        {
            "inputs": [
                {
                    "internalType": "bytes4",
                    "name": "interfaceId",
                    "type": "bytes4"
                }
            ],
            "name": "supportsInterface",
            "outputs": [
                {
                    "internalType": "bool",
                    "name": "",
                    "type": "bool"
                }
            ],
            "stateMutability": "view",
            "type": "function"
        },
        {
            "inputs": [],
            "name": "symbol",
            "outputs": [
                {
                    "internalType": "string",
                    "name": "",
                    "type": "string"
                }
            ],
            "stateMutability": "view",
            "type": "function"
        },
        {
            "inputs": [
                {
                    "internalType": "uint256",
                    "name": "index",
                    "type": "uint256"
                }
            ],
            "name": "tokenByIndex",
            "outputs": [
                {
                    "internalType": "uint256",
                    "name": "",
                    "type": "uint256"
                }
            ],
            "stateMutability": "view",
            "type": "function"
        },
        {
            "inputs": [
                {
                    "internalType": "address",
                    "name": "owner",
                    "type": "address"
                },
                {
                    "internalType": "uint256",
                    "name": "index",
                    "type": "uint256"
                }
            ],
            "name": "tokenOfOwnerByIndex",
            "outputs": [
                {
                    "internalType": "uint256",
                    "name": "",
                    "type": "uint256"
                }
            ],
            "stateMutability": "view",
            "type": "function"
        },
        {
            "inputs": [
                {
                    "internalType": "uint256",
                    "name": "tokenId",
                    "type": "uint256"
                }
            ],
            "name": "tokenURI",
            "outputs": [
                {
                    "internalType": "string",
                    "name": "",
                    "type": "string"
                }
            ],
            "stateMutability": "view",
            "type": "function"
        },
        {
            "inputs": [],
            "name": "totalSupply",
            "outputs": [
                {
                    "internalType": "uint256",
                    "name": "",
                    "type": "uint256"
                }
            ],
            "stateMutability": "view",
            "type": "function"
        },
        {
            "inputs": [
                {
                    "internalType": "address",
                    "name": "from",
                    "type": "address"
                },
                {
                    "internalType": "address",
                    "name": "to",
                    "type": "address"
                },
                {
                    "internalType": "uint256",
                    "name": "tokenId",
                    "type": "uint256"
                }
            ],
            "name": "transferFrom",
            "outputs": [],
            "stateMutability": "nonpayable",
            "type": "function"
        },
        {
            "inputs": [
                {
                    "internalType": "address",
                    "name": "newOwner",
                    "type": "address"
                }
            ],
            "name": "transferOwnership",
            "outputs": [],
            "stateMutability": "nonpayable",
            "type": "function"
        }
    ],
    "bytecode": "0x60806040523480156200001157600080fd5b506040518060400160405280600881526020017f546167546f6b656e0000000000000000000000000000000000000000000000008152506040518060400160405280600381526020017f5441470000000000000000000000000000000000000000000000000000000000815250816000908051906020019062000096929190620001a6565b508060019080519060200190620000af929190620001a6565b505050620000d2620000c6620000d860201b60201c565b620000e060201b60201c565b620002bb565b600033905090565b6000600a60009054906101000a900473ffffffffffffffffffffffffffffffffffffffff16905081600a60006101000a81548173ffffffffffffffffffffffffffffffffffffffff021916908373ffffffffffffffffffffffffffffffffffffffff1602179055508173ffffffffffffffffffffffffffffffffffffffff168173ffffffffffffffffffffffffffffffffffffffff167f8be0079c531659141344cd1fd0a4f28419497f9722a3daafe3b4186f6b6457e060405160405180910390a35050565b828054620001b49062000256565b90600052602060002090601f016020900481019282620001d8576000855562000224565b82601f10620001f357805160ff191683800117855562000224565b8280016001018555821562000224579182015b828111156200022357825182559160200191906001019062000206565b5b50905062000233919062000237565b5090565b5b808211156200025257600081600090555060010162000238565b5090565b600060028204905060018216806200026f57607f821691505b602082108114156200028657620002856200028c565b5b50919050565b7f4e487b7100000000000000000000000000000000000000000000000000000000600052602260045260246000fd5b6145e780620002cb6000396000f3fe608060405234801561001057600080fd5b50600436106101425760003560e01c80636352211e116100b8578063a22cb4651161007c578063a22cb46514610379578063b88d4fde14610395578063c87b56dd146103b1578063e985e9c5146103e1578063f2fde38b14610411578063f7b22d1f1461042d57610142565b80636352211e146102d357806370a0823114610303578063715018a6146103335780638da5cb5b1461033d57806395d89b411461035b57610142565b80631249c58b1161010a5780631249c58b1461021357806318160ddd1461021d57806323b872dd1461023b5780632f745c591461025757806342842e0e146102875780634f6ccce7146102a357610142565b806301ffc9a71461014757806306fdde0314610177578063081812fc14610195578063095ea7b3146101c55780630c64ae11146101e1575b600080fd5b610161600480360381019061015c9190612910565b610449565b60405161016e919061331e565b60405180910390f35b61017f6104c3565b60405161018c9190613339565b60405180910390f35b6101af60048036038101906101aa91906129f9565b610555565b6040516101bc91906132b7565b60405180910390f35b6101df60048036038101906101da91906128d4565b6105da565b005b6101fb60048036038101906101f691906129f9565b6106f2565b60405161020a9392919061335b565b60405180910390f35b61021b6108f3565b005b61022561099a565b60405161023291906135e7565b60405180910390f35b610255600480360381019061025091906127ce565b6109a7565b005b610271600480360381019061026c91906128d4565b610a07565b60405161027e91906135e7565b60405180910390f35b6102a1600480360381019061029c91906127ce565b610aac565b005b6102bd60048036038101906102b891906129f9565b610acc565b6040516102ca91906135e7565b60405180910390f35b6102ed60048036038101906102e891906129f9565b610b63565b6040516102fa91906132b7565b60405180910390f35b61031d60048036038101906103189190612769565b610c15565b60405161032a91906135e7565b60405180910390f35b61033b610ccd565b005b610345610d55565b60405161035291906132b7565b60405180910390f35b610363610d7f565b6040516103709190613339565b60405180910390f35b610393600480360381019061038e9190612898565b610e11565b005b6103af60048036038101906103aa919061281d565b610e27565b005b6103cb60048036038101906103c691906129f9565b610e89565b6040516103d89190613339565b60405180910390f35b6103fb60048036038101906103f69190612792565b610f2f565b604051610408919061331e565b60405180910390f35b61042b60048036038101906104269190612769565b610fc3565b005b61044760048036038101906104429190612a22565b6110bb565b005b60007f780e9d63000000000000000000000000000000000000000000000000000000007bffffffffffffffffffffffffffffffffffffffffffffffffffffffff1916827bffffffffffffffffffffffffffffffffffffffffffffffffffffffff191614806104bc57506104bb82611164565b5b9050919050565b6060600080546104d290613897565b80601f01602080910402602001604051908101604052809291908181526020018280546104fe90613897565b801561054b5780601f106105205761010080835404028352916020019161054b565b820191906000526020600020905b81548152906001019060200180831161052e57829003601f168201915b5050505050905090565b600061056082611246565b61059f576040517f08c379a000000000000000000000000000000000000000000000000000000000815260040161059690613527565b60405180910390fd5b6004600083815260200190815260200160002060009054906101000a900473ffffffffffffffffffffffffffffffffffffffff169050919050565b60006105e582610b63565b90508073ffffffffffffffffffffffffffffffffffffffff168373ffffffffffffffffffffffffffffffffffffffff161415610656576040517f08c379a000000000000000000000000000000000000000000000000000000000815260040161064d90613587565b60405180910390fd5b8073ffffffffffffffffffffffffffffffffffffffff166106756112b2565b73ffffffffffffffffffffffffffffffffffffffff1614806106a457506106a38161069e6112b2565b610f2f565b5b6106e3576040517f08c379a00000000000000000000000000000000000000000000000000000000081526004016106da906134a7565b60405180910390fd5b6106ed83836112ba565b505050565b60608060606000600b6000868152602001908152602001600020600001805461071a90613897565b80601f016020809104026020016040519081016040528092919081815260200182805461074690613897565b80156107935780601f1061076857610100808354040283529160200191610793565b820191906000526020600020905b81548152906001019060200180831161077657829003601f168201915b505050505090506000600b600087815260200190815260200160002060010180546107bd90613897565b80601f01602080910402602001604051908101604052809291908181526020018280546107e990613897565b80156108365780601f1061080b57610100808354040283529160200191610836565b820191906000526020600020905b81548152906001019060200180831161081957829003601f168201915b505050505090506000600b6000888152602001908152602001600020600201805461086090613897565b80601f016020809104026020016040519081016040528092919081815260200182805461088c90613897565b80156108d95780601f106108ae576101008083540402835291602001916108d9565b820191906000526020600020905b8154815290600101906020018083116108bc57829003601f168201915b505050505090508282829550955095505050509193909250565b6108fb6112b2565b73ffffffffffffffffffffffffffffffffffffffff16610919610d55565b73ffffffffffffffffffffffffffffffffffffffff161461096f576040517f08c379a000000000000000000000000000000000000000000000000000000000815260040161096690613547565b60405180910390fd5b600061097961099a565b905060003390506109968160018461099191906136cc565b611373565b5050565b6000600880549050905090565b6109b86109b26112b2565b82611391565b6109f7576040517f08c379a00000000000000000000000000000000000000000000000000000000081526004016109ee906135a7565b60405180910390fd5b610a0283838361146f565b505050565b6000610a1283610c15565b8210610a53576040517f08c379a0000000000000000000000000000000000000000000000000000000008152600401610a4a906133a7565b60405180910390fd5b600660008473ffffffffffffffffffffffffffffffffffffffff1673ffffffffffffffffffffffffffffffffffffffff168152602001908152602001600020600083815260200190815260200160002054905092915050565b610ac783838360405180602001604052806000815250610e27565b505050565b6000610ad661099a565b8210610b17576040517f08c379a0000000000000000000000000000000000000000000000000000000008152600401610b0e906135c7565b60405180910390fd5b60088281548110610b51577f4e487b7100000000000000000000000000000000000000000000000000000000600052603260045260246000fd5b90600052602060002001549050919050565b6000806002600084815260200190815260200160002060009054906101000a900473ffffffffffffffffffffffffffffffffffffffff169050600073ffffffffffffffffffffffffffffffffffffffff168173ffffffffffffffffffffffffffffffffffffffff161415610c0c576040517f08c379a0000000000000000000000000000000000000000000000000000000008152600401610c03906134e7565b60405180910390fd5b80915050919050565b60008073ffffffffffffffffffffffffffffffffffffffff168273ffffffffffffffffffffffffffffffffffffffff161415610c86576040517f08c379a0000000000000000000000000000000000000000000000000000000008152600401610c7d906134c7565b60405180910390fd5b600360008373ffffffffffffffffffffffffffffffffffffffff1673ffffffffffffffffffffffffffffffffffffffff168152602001908152602001600020549050919050565b610cd56112b2565b73ffffffffffffffffffffffffffffffffffffffff16610cf3610d55565b73ffffffffffffffffffffffffffffffffffffffff1614610d49576040517f08c379a0000000000000000000000000000000000000000000000000000000008152600401610d4090613547565b60405180910390fd5b610d5360006116d6565b565b6000600a60009054906101000a900473ffffffffffffffffffffffffffffffffffffffff16905090565b606060018054610d8e90613897565b80601f0160208091040260200160405190810160405280929190818152602001828054610dba90613897565b8015610e075780601f10610ddc57610100808354040283529160200191610e07565b820191906000526020600020905b815481529060010190602001808311610dea57829003601f168201915b5050505050905090565b610e23610e1c6112b2565b838361179c565b5050565b610e38610e326112b2565b83611391565b610e77576040517f08c379a0000000000000000000000000000000000000000000000000000000008152600401610e6e906135a7565b60405180910390fd5b610e8384848484611909565b50505050565b6060610e9482611246565b610ed3576040517f08c379a0000000000000000000000000000000000000000000000000000000008152600401610eca90613567565b60405180910390fd5b6000610ede83611965565b9050610f0881604051602001610ef49190613115565b604051602081830303815290604052611aac565b604051602001610f189190613171565b604051602081830303815290604052915050919050565b6000600560008473ffffffffffffffffffffffffffffffffffffffff1673ffffffffffffffffffffffffffffffffffffffff16815260200190815260200160002060008373ffffffffffffffffffffffffffffffffffffffff1673ffffffffffffffffffffffffffffffffffffffff16815260200190815260200160002060009054906101000a900460ff16905092915050565b610fcb6112b2565b73ffffffffffffffffffffffffffffffffffffffff16610fe9610d55565b73ffffffffffffffffffffffffffffffffffffffff161461103f576040517f08c379a000000000000000000000000000000000000000000000000000000000815260040161103690613547565b60405180910390fd5b600073ffffffffffffffffffffffffffffffffffffffff168173ffffffffffffffffffffffffffffffffffffffff1614156110af576040517f08c379a00000000000000000000000000000000000000000000000000000000081526004016110a6906133e7565b60405180910390fd5b6110b8816116d6565b50565b3373ffffffffffffffffffffffffffffffffffffffff166110db85610b63565b73ffffffffffffffffffffffffffffffffffffffff16146110fb57600080fd5b6000600b600086815260200190815260200160002090508381600001908051906020019061112a929190612525565b5082816001019080519060200190611143929190612525565b508181600201908051906020019061115c929190612525565b505050505050565b60007f80ac58cd000000000000000000000000000000000000000000000000000000007bffffffffffffffffffffffffffffffffffffffffffffffffffffffff1916827bffffffffffffffffffffffffffffffffffffffffffffffffffffffff1916148061122f57507f5b5e139f000000000000000000000000000000000000000000000000000000007bffffffffffffffffffffffffffffffffffffffffffffffffffffffff1916827bffffffffffffffffffffffffffffffffffffffffffffffffffffffff1916145b8061123f575061123e82611c36565b5b9050919050565b60008073ffffffffffffffffffffffffffffffffffffffff166002600084815260200190815260200160002060009054906101000a900473ffffffffffffffffffffffffffffffffffffffff1673ffffffffffffffffffffffffffffffffffffffff1614159050919050565b600033905090565b816004600083815260200190815260200160002060006101000a81548173ffffffffffffffffffffffffffffffffffffffff021916908373ffffffffffffffffffffffffffffffffffffffff160217905550808273ffffffffffffffffffffffffffffffffffffffff1661132d83610b63565b73ffffffffffffffffffffffffffffffffffffffff167f8c5be1e5ebec7d5bd14f71427d1e84f3dd0314c0f7b2291e5b200ac8c7c3b92560405160405180910390a45050565b61138d828260405180602001604052806000815250611ca0565b5050565b600061139c82611246565b6113db576040517f08c379a00000000000000000000000000000000000000000000000000000000081526004016113d290613487565b60405180910390fd5b60006113e683610b63565b90508073ffffffffffffffffffffffffffffffffffffffff168473ffffffffffffffffffffffffffffffffffffffff16148061142857506114278185610f2f565b5b8061146657508373ffffffffffffffffffffffffffffffffffffffff1661144e84610555565b73ffffffffffffffffffffffffffffffffffffffff16145b91505092915050565b8273ffffffffffffffffffffffffffffffffffffffff1661148f82610b63565b73ffffffffffffffffffffffffffffffffffffffff16146114e5576040517f08c379a00000000000000000000000000000000000000000000000000000000081526004016114dc90613407565b60405180910390fd5b600073ffffffffffffffffffffffffffffffffffffffff168273ffffffffffffffffffffffffffffffffffffffff161415611555576040517f08c379a000000000000000000000000000000000000000000000000000000000815260040161154c90613447565b60405180910390fd5b611560838383611cfb565b61156b6000826112ba565b6001600360008573ffffffffffffffffffffffffffffffffffffffff1673ffffffffffffffffffffffffffffffffffffffff16815260200190815260200160002060008282546115bb91906137ad565b925050819055506001600360008473ffffffffffffffffffffffffffffffffffffffff1673ffffffffffffffffffffffffffffffffffffffff168152602001908152602001600020600082825461161291906136cc565b92505081905550816002600083815260200190815260200160002060006101000a81548173ffffffffffffffffffffffffffffffffffffffff021916908373ffffffffffffffffffffffffffffffffffffffff160217905550808273ffffffffffffffffffffffffffffffffffffffff168473ffffffffffffffffffffffffffffffffffffffff167fddf252ad1be2c89b69c2b068fc378daa952ba7f163c4a11628f55a4df523b3ef60405160405180910390a46116d1838383611e0f565b505050565b6000600a60009054906101000a900473ffffffffffffffffffffffffffffffffffffffff16905081600a60006101000a81548173ffffffffffffffffffffffffffffffffffffffff021916908373ffffffffffffffffffffffffffffffffffffffff1602179055508173ffffffffffffffffffffffffffffffffffffffff168173ffffffffffffffffffffffffffffffffffffffff167f8be0079c531659141344cd1fd0a4f28419497f9722a3daafe3b4186f6b6457e060405160405180910390a35050565b8173ffffffffffffffffffffffffffffffffffffffff168373ffffffffffffffffffffffffffffffffffffffff16141561180b576040517f08c379a000000000000000000000000000000000000000000000000000000000815260040161180290613467565b60405180910390fd5b80600560008573ffffffffffffffffffffffffffffffffffffffff1673ffffffffffffffffffffffffffffffffffffffff16815260200190815260200160002060008473ffffffffffffffffffffffffffffffffffffffff1673ffffffffffffffffffffffffffffffffffffffff16815260200190815260200160002060006101000a81548160ff0219169083151502179055508173ffffffffffffffffffffffffffffffffffffffff168373ffffffffffffffffffffffffffffffffffffffff167f17307eab39ab6107e8899845ad3d59bd9653f200f220920489ca2b5937696c31836040516118fc919061331e565b60405180910390a3505050565b61191484848461146f565b61192084848484611e14565b61195f576040517f08c379a0000000000000000000000000000000000000000000000000000000008152600401611956906133c7565b60405180910390fd5b50505050565b6060806060803073ffffffffffffffffffffffffffffffffffffffff16630c64ae11866040518263ffffffff1660e01b81526004016119a491906135e7565b60006040518083038186803b1580156119bc57600080fd5b505afa1580156119d0573d6000803e3d6000fd5b505050506040513d6000823e3d601f19601f820116820180604052508101906119f99190612962565b8093508194508295505050506000838383604051602001611a1c93929190613193565b60405160208183030381529060405290506000611a5782604051602001611a439190613115565b604051602081830303815290604052611aac565b604051602001611a679190613295565b604051602081830303815290604052905060008186604051602001611a8d92919061312c565b6040516020818303038152906040529050809650505050505050919050565b6060600082511415611acf57604051806020016040528060008152509050611c31565b60006040518060600160405280604081526020016145726040913990506000600360028551611afe91906136cc565b611b089190613722565b6004611b149190613753565b67ffffffffffffffff811115611b53577f4e487b7100000000000000000000000000000000000000000000000000000000600052604160045260246000fd5b6040519080825280601f01601f191660200182016040528015611b855781602001600182028036833780820191505090505b509050600182016020820185865187015b80821015611bf1576003820191508151603f8160121c168501518453600184019350603f81600c1c168501518453600184019350603f8160061c168501518453600184019350603f8116850151845360018401935050611b96565b5050600386510660018114611c0d5760028114611c2057611c28565b603d6001830353603d6002830353611c28565b603d60018303535b50505080925050505b919050565b60007f01ffc9a7000000000000000000000000000000000000000000000000000000007bffffffffffffffffffffffffffffffffffffffffffffffffffffffff1916827bffffffffffffffffffffffffffffffffffffffffffffffffffffffff1916149050919050565b611caa8383611fab565b611cb76000848484611e14565b611cf6576040517f08c379a0000000000000000000000000000000000000000000000000000000008152600401611ced906133c7565b60405180910390fd5b505050565b611d06838383612185565b600073ffffffffffffffffffffffffffffffffffffffff168373ffffffffffffffffffffffffffffffffffffffff161415611d4957611d448161218a565b611d88565b8173ffffffffffffffffffffffffffffffffffffffff168373ffffffffffffffffffffffffffffffffffffffff1614611d8757611d8683826121d3565b5b5b600073ffffffffffffffffffffffffffffffffffffffff168273ffffffffffffffffffffffffffffffffffffffff161415611dcb57611dc681612340565b611e0a565b8273ffffffffffffffffffffffffffffffffffffffff168273ffffffffffffffffffffffffffffffffffffffff1614611e0957611e088282612483565b5b5b505050565b505050565b6000611e358473ffffffffffffffffffffffffffffffffffffffff16612502565b15611f9e578373ffffffffffffffffffffffffffffffffffffffff1663150b7a02611e5e6112b2565b8786866040518563ffffffff1660e01b8152600401611e8094939291906132d2565b602060405180830381600087803b158015611e9a57600080fd5b505af1925050508015611ecb57506040513d601f19601f82011682018060405250810190611ec89190612939565b60015b611f4e573d8060008114611efb576040519150601f19603f3d011682016040523d82523d6000602084013e611f00565b606091505b50600081511415611f46576040517f08c379a0000000000000000000000000000000000000000000000000000000008152600401611f3d906133c7565b60405180910390fd5b805181602001fd5b63150b7a0260e01b7bffffffffffffffffffffffffffffffffffffffffffffffffffffffff1916817bffffffffffffffffffffffffffffffffffffffffffffffffffffffff191614915050611fa3565b600190505b949350505050565b600073ffffffffffffffffffffffffffffffffffffffff168273ffffffffffffffffffffffffffffffffffffffff16141561201b576040517f08c379a000000000000000000000000000000000000000000000000000000000815260040161201290613507565b60405180910390fd5b61202481611246565b15612064576040517f08c379a000000000000000000000000000000000000000000000000000000000815260040161205b90613427565b60405180910390fd5b61207060008383611cfb565b6001600360008473ffffffffffffffffffffffffffffffffffffffff1673ffffffffffffffffffffffffffffffffffffffff16815260200190815260200160002060008282546120c091906136cc565b92505081905550816002600083815260200190815260200160002060006101000a81548173ffffffffffffffffffffffffffffffffffffffff021916908373ffffffffffffffffffffffffffffffffffffffff160217905550808273ffffffffffffffffffffffffffffffffffffffff16600073ffffffffffffffffffffffffffffffffffffffff167fddf252ad1be2c89b69c2b068fc378daa952ba7f163c4a11628f55a4df523b3ef60405160405180910390a461218160008383611e0f565b5050565b505050565b6008805490506009600083815260200190815260200160002081905550600881908060018154018082558091505060019003906000526020600020016000909190919091505550565b600060016121e084610c15565b6121ea91906137ad565b90506000600760008481526020019081526020016000205490508181146122cf576000600660008673ffffffffffffffffffffffffffffffffffffffff1673ffffffffffffffffffffffffffffffffffffffff168152602001908152602001600020600084815260200190815260200160002054905080600660008773ffffffffffffffffffffffffffffffffffffffff1673ffffffffffffffffffffffffffffffffffffffff168152602001908152602001600020600084815260200190815260200160002081905550816007600083815260200190815260200160002081905550505b6007600084815260200190815260200160002060009055600660008573ffffffffffffffffffffffffffffffffffffffff1673ffffffffffffffffffffffffffffffffffffffff16815260200190815260200160002060008381526020019081526020016000206000905550505050565b6000600160088054905061235491906137ad565b90506000600960008481526020019081526020016000205490506000600883815481106123aa577f4e487b7100000000000000000000000000000000000000000000000000000000600052603260045260246000fd5b9060005260206000200154905080600883815481106123f2577f4e487b7100000000000000000000000000000000000000000000000000000000600052603260045260246000fd5b906000526020600020018190555081600960008381526020019081526020016000208190555060096000858152602001908152602001600020600090556008805480612467577f4e487b7100000000000000000000000000000000000000000000000000000000600052603160045260246000fd5b6001900381819060005260206000200160009055905550505050565b600061248e83610c15565b905081600660008573ffffffffffffffffffffffffffffffffffffffff1673ffffffffffffffffffffffffffffffffffffffff168152602001908152602001600020600083815260200190815260200160002081905550806007600084815260200190815260200160002081905550505050565b6000808273ffffffffffffffffffffffffffffffffffffffff163b119050919050565b82805461253190613897565b90600052602060002090601f016020900481019282612553576000855561259a565b82601f1061256c57805160ff191683800117855561259a565b8280016001018555821561259a579182015b8281111561259957825182559160200191906001019061257e565b5b5090506125a791906125ab565b5090565b5b808211156125c45760008160009055506001016125ac565b5090565b60006125db6125d684613627565b613602565b9050828152602081018484840111156125f357600080fd5b6125fe848285613855565b509392505050565b600061261961261484613658565b613602565b90508281526020810184848401111561263157600080fd5b61263c848285613855565b509392505050565b600061265761265284613658565b613602565b90508281526020810184848401111561266f57600080fd5b61267a848285613864565b509392505050565b60008135905061269181614515565b92915050565b6000813590506126a68161452c565b92915050565b6000813590506126bb81614543565b92915050565b6000815190506126d081614543565b92915050565b600082601f8301126126e757600080fd5b81356126f78482602086016125c8565b91505092915050565b600082601f83011261271157600080fd5b8135612721848260208601612606565b91505092915050565b600082601f83011261273b57600080fd5b815161274b848260208601612644565b91505092915050565b6000813590506127638161455a565b92915050565b60006020828403121561277b57600080fd5b600061278984828501612682565b91505092915050565b600080604083850312156127a557600080fd5b60006127b385828601612682565b92505060206127c485828601612682565b9150509250929050565b6000806000606084860312156127e357600080fd5b60006127f186828701612682565b935050602061280286828701612682565b925050604061281386828701612754565b9150509250925092565b6000806000806080858703121561283357600080fd5b600061284187828801612682565b945050602061285287828801612682565b935050604061286387828801612754565b925050606085013567ffffffffffffffff81111561288057600080fd5b61288c878288016126d6565b91505092959194509250565b600080604083850312156128ab57600080fd5b60006128b985828601612682565b92505060206128ca85828601612697565b9150509250929050565b600080604083850312156128e757600080fd5b60006128f585828601612682565b925050602061290685828601612754565b9150509250929050565b60006020828403121561292257600080fd5b6000612930848285016126ac565b91505092915050565b60006020828403121561294b57600080fd5b6000612959848285016126c1565b91505092915050565b60008060006060848603121561297757600080fd5b600084015167ffffffffffffffff81111561299157600080fd5b61299d8682870161272a565b935050602084015167ffffffffffffffff8111156129ba57600080fd5b6129c68682870161272a565b925050604084015167ffffffffffffffff8111156129e357600080fd5b6129ef8682870161272a565b9150509250925092565b600060208284031215612a0b57600080fd5b6000612a1984828501612754565b91505092915050565b60008060008060808587031215612a3857600080fd5b6000612a4687828801612754565b945050602085013567ffffffffffffffff811115612a6357600080fd5b612a6f87828801612700565b935050604085013567ffffffffffffffff811115612a8c57600080fd5b612a9887828801612700565b925050606085013567ffffffffffffffff811115612ab557600080fd5b612ac187828801612700565b91505092959194509250565b612ad6816137e1565b82525050565b612ae5816137f3565b82525050565b6000612af682613689565b612b00818561369f565b9350612b10818560208601613864565b612b19816139b6565b840191505092915050565b6000612b2f82613694565b612b3981856136b0565b9350612b49818560208601613864565b612b52816139b6565b840191505092915050565b6000612b6882613694565b612b7281856136c1565b9350612b82818560208601613864565b80840191505092915050565b6000612b9b6077836136c1565b9150612ba6826139c7565b607782019050919050565b6000612bbe6008836136c1565b9150612bc982613a62565b600882019050919050565b6000612be1602b836136b0565b9150612bec82613a8b565b604082019050919050565b6000612c046032836136b0565b9150612c0f82613ada565b604082019050919050565b6000612c27602a836136c1565b9150612c3282613b29565b602a82019050919050565b6000612c4a6026836136b0565b9150612c5582613b78565b604082019050919050565b6000612c6d6025836136b0565b9150612c7882613bc7565b604082019050919050565b6000612c906064836136c1565b9150612c9b82613c16565b606482019050919050565b6000612cb3601c836136b0565b9150612cbe82613cb1565b602082019050919050565b6000612cd66008836136c1565b9150612ce182613cda565b600882019050919050565b6000612cf96024836136b0565b9150612d0482613d03565b604082019050919050565b6000612d1c6019836136b0565b9150612d2782613d52565b602082019050919050565b6000612d3f6005836136c1565b9150612d4a82613d7b565b600582019050919050565b6000612d626066836136c1565b9150612d6d82613da4565b606682019050919050565b6000612d85602c836136b0565b9150612d9082613e3f565b604082019050919050565b6000612da86038836136b0565b9150612db382613e8e565b604082019050919050565b6000612dcb602a836136b0565b9150612dd682613edd565b604082019050919050565b6000612dee6029836136b0565b9150612df982613f2c565b604082019050919050565b6000612e11602a836136c1565b9150612e1c82613f7b565b602a82019050919050565b6000612e346007836136c1565b9150612e3f82613fca565b600782019050919050565b6000612e576036836136c1565b9150612e6282613ff3565b603682019050919050565b6000612e7a6020836136b0565b9150612e8582614042565b602082019050919050565b6000612e9d6001836136c1565b9150612ea88261406b565b600182019050919050565b6000612ec06032836136c1565b9150612ecb82614094565b603282019050919050565b6000612ee3602c836136b0565b9150612eee826140e3565b604082019050919050565b6000612f066013836136c1565b9150612f1182614132565b601382019050919050565b6000612f296020836136b0565b9150612f348261415b565b602082019050919050565b6000612f4c6019836136b0565b9150612f5782614184565b602082019050919050565b6000612f6f6004836136c1565b9150612f7a826141ad565b600482019050919050565b6000612f926021836136b0565b9150612f9d826141d6565b604082019050919050565b6000612fb5601d836136c1565b9150612fc082614225565b601d82019050919050565b6000612fd86007836136c1565b9150612fe38261424e565b600782019050919050565b6000612ffb6031836136b0565b915061300682614277565b604082019050919050565b600061301e602c836136b0565b9150613029826142c6565b604082019050919050565b60006130416002836136c1565b915061304c82614315565b600282019050919050565b6000613064608c836136c1565b915061306f8261433e565b608c82019050919050565b60006130876006836136c1565b9150613092826143ff565b600682019050919050565b60006130aa6066836136c1565b91506130b582614428565b606682019050919050565b60006130cd6004836136c1565b91506130d8826144c3565b600482019050919050565b60006130f0601a836136c1565b91506130fb826144ec565b601a82019050919050565b61310f8161384b565b82525050565b60006131218284612b5d565b915081905092915050565b600061313782612e04565b91506131438285612b5d565b915061314e82612c83565b915061315a8284612b5d565b9150613165826130c0565b91508190509392505050565b600061317c82612fa8565b91506131888284612b5d565b915081905092915050565b600061319e82613057565b91506131a982612e4a565b91506131b482613034565b91506131bf82612f62565b91506131ca82612ef9565b91506131d582612e90565b91506131e082612d32565b91506131eb82612eb3565b91506131f682612e90565b915061320182612cc9565b915061320c82612fcb565b915061321782612c1a565b91506132228261309d565b915061322e8286612b5d565b915061323982612bb1565b915061324482612d55565b91506132508285612b5d565b915061325b82612e27565b915061326682612b8e565b91506132728284612b5d565b915061327d82612e27565b91506132888261307a565b9150819050949350505050565b60006132a0826130e3565b91506132ac8284612b5d565b915081905092915050565b60006020820190506132cc6000830184612acd565b92915050565b60006080820190506132e76000830187612acd565b6132f46020830186612acd565b6133016040830185613106565b81810360608301526133138184612aeb565b905095945050505050565b60006020820190506133336000830184612adc565b92915050565b600060208201905081810360008301526133538184612b24565b905092915050565b600060608201905081810360008301526133758186612b24565b905081810360208301526133898185612b24565b9050818103604083015261339d8184612b24565b9050949350505050565b600060208201905081810360008301526133c081612bd4565b9050919050565b600060208201905081810360008301526133e081612bf7565b9050919050565b6000602082019050818103600083015261340081612c3d565b9050919050565b6000602082019050818103600083015261342081612c60565b9050919050565b6000602082019050818103600083015261344081612ca6565b9050919050565b6000602082019050818103600083015261346081612cec565b9050919050565b6000602082019050818103600083015261348081612d0f565b9050919050565b600060208201905081810360008301526134a081612d78565b9050919050565b600060208201905081810360008301526134c081612d9b565b9050919050565b600060208201905081810360008301526134e081612dbe565b9050919050565b6000602082019050818103600083015261350081612de1565b9050919050565b6000602082019050818103600083015261352081612e6d565b9050919050565b6000602082019050818103600083015261354081612ed6565b9050919050565b6000602082019050818103600083015261356081612f1c565b9050919050565b6000602082019050818103600083015261358081612f3f565b9050919050565b600060208201905081810360008301526135a081612f85565b9050919050565b600060208201905081810360008301526135c081612fee565b9050919050565b600060208201905081810360008301526135e081613011565b9050919050565b60006020820190506135fc6000830184613106565b92915050565b600061360c61361d565b905061361882826138c9565b919050565b6000604051905090565b600067ffffffffffffffff82111561364257613641613987565b5b61364b826139b6565b9050602081019050919050565b600067ffffffffffffffff82111561367357613672613987565b5b61367c826139b6565b9050602081019050919050565b600081519050919050565b600081519050919050565b600082825260208201905092915050565b600082825260208201905092915050565b600081905092915050565b60006136d78261384b565b91506136e28361384b565b9250827fffffffffffffffffffffffffffffffffffffffffffffffffffffffffffffffff03821115613717576137166138fa565b5b828201905092915050565b600061372d8261384b565b91506137388361384b565b92508261374857613747613929565b5b828204905092915050565b600061375e8261384b565b91506137698361384b565b9250817fffffffffffffffffffffffffffffffffffffffffffffffffffffffffffffffff04831182151516156137a2576137a16138fa565b5b828202905092915050565b60006137b88261384b565b91506137c38361384b565b9250828210156137d6576137d56138fa565b5b828203905092915050565b60006137ec8261382b565b9050919050565b60008115159050919050565b60007fffffffff0000000000000000000000000000000000000000000000000000000082169050919050565b600073ffffffffffffffffffffffffffffffffffffffff82169050919050565b6000819050919050565b82818337600083830152505050565b60005b83811015613882578082015181840152602081019050613867565b83811115613891576000848401525b50505050565b600060028204905060018216806138af57607f821691505b602082108114156138c3576138c2613958565b5b50919050565b6138d2826139b6565b810181811067ffffffffffffffff821117156138f1576138f0613987565b5b80604052505050565b7f4e487b7100000000000000000000000000000000000000000000000000000000600052601160045260246000fd5b7f4e487b7100000000000000000000000000000000000000000000000000000000600052601260045260246000fd5b7f4e487b7100000000000000000000000000000000000000000000000000000000600052602260045260246000fd5b7f4e487b7100000000000000000000000000000000000000000000000000000000600052604160045260246000fd5b6000601f19601f8301169050919050565b7f3c7465787420783d223530252220793d223530252220616c69676e6d656e742d60008201527f626173656c696e653d226d6964646c652220746578742d616e63686f723d226d60208201527f6964646c65222066696c6c3d22436f72616c2220666f6e742d73697a653d223860408201527f70782220666f6e742d7765696768743d22626f6c64223e000000000000000000606082015250565b7f3c2f746578743e20000000000000000000000000000000000000000000000000600082015250565b7f455243373231456e756d657261626c653a206f776e657220696e646578206f7560008201527f74206f6620626f756e6473000000000000000000000000000000000000000000602082015250565b7f4552433732313a207472616e7366657220746f206e6f6e20455243373231526560008201527f63656976657220696d706c656d656e7465720000000000000000000000000000602082015250565b7f3c726563742077696474683d223130302522206865696768743d22393025222060008201527f66696c6c3d2222202f3e00000000000000000000000000000000000000000000602082015250565b7f4f776e61626c653a206e6577206f776e657220697320746865207a65726f206160008201527f6464726573730000000000000000000000000000000000000000000000000000602082015250565b7f4552433732313a207472616e736665722066726f6d20696e636f72726563742060008201527f6f776e6572000000000000000000000000000000000000000000000000000000602082015250565b7f222c202261747472696275746573223a205b207b2274726169745f747970652260008201527f3a2022546167222c202276616c7565223a2022546167676564227d2c207b227460208201527f726169745f74797065223a2022436f6c6c656374696f6e222c202276616c756560408201527f223a202200000000000000000000000000000000000000000000000000000000606082015250565b7f4552433732313a20746f6b656e20616c7265616479206d696e74656400000000600082015250565b7f3c2f7374796c653e000000000000000000000000000000000000000000000000600082015250565b7f4552433732313a207472616e7366657220746f20746865207a65726f2061646460008201527f7265737300000000000000000000000000000000000000000000000000000000602082015250565b7f4552433732313a20617070726f766520746f2063616c6c657200000000000000600082015250565b7f746578747b000000000000000000000000000000000000000000000000000000600082015250565b7f3c7465787420783d223530252220793d223430252220616c69676e6d656e742d60008201527f626173656c696e653d226d6964646c652220746578742d616e63686f723d226d60208201527f6964646c65222066696c6c3d22234630463846462220666f6e742d73697a653d60408201527f22367078223e0000000000000000000000000000000000000000000000000000606082015250565b7f4552433732313a206f70657261746f7220717565727920666f72206e6f6e657860008201527f697374656e7420746f6b656e0000000000000000000000000000000000000000602082015250565b7f4552433732313a20617070726f76652063616c6c6572206973206e6f74206f7760008201527f6e6572206e6f7220617070726f76656420666f7220616c6c0000000000000000602082015250565b7f4552433732313a2062616c616e636520717565727920666f7220746865207a6560008201527f726f206164647265737300000000000000000000000000000000000000000000602082015250565b7f4552433732313a206f776e657220717565727920666f72206e6f6e657869737460008201527f656e7420746f6b656e0000000000000000000000000000000000000000000000602082015250565b7f7b226465736372697074696f6e223a202254414720436f6e7472616374222c2060008201527f22696d616765223a202200000000000000000000000000000000000000000000602082015250565b7f3c2f746578743e00000000000000000000000000000000000000000000000000600082015250565b7f2268747470733a2f2f666f6e74732e676f6f676c65617069732e636f6d2f637360008201527f73323f66616d696c793d467265646f6b612b4f6e652200000000000000000000602082015250565b7f4552433732313a206d696e7420746f20746865207a65726f2061646472657373600082015250565b7f7d00000000000000000000000000000000000000000000000000000000000000600082015250565b7f666f6e742d66616d696c793a2022467265646f6b61204f6e65223b2048656c7660008201527f65746963612c2073616e732d73657269663b0000000000000000000000000000602082015250565b7f4552433732313a20617070726f76656420717565727920666f72206e6f6e657860008201527f697374656e7420746f6b656e0000000000000000000000000000000000000000602082015250565b7f66696c6c3a6461726b736c617465677265793b00000000000000000000000000600082015250565b7f4f776e61626c653a2063616c6c6572206973206e6f7420746865206f776e6572600082015250565b7f4552433732313a206e6f6e6578697374656e7420746f6b656e00000000000000600082015250565b7f7376677b00000000000000000000000000000000000000000000000000000000600082015250565b7f4552433732313a20617070726f76616c20746f2063757272656e74206f776e6560008201527f7200000000000000000000000000000000000000000000000000000000000000602082015250565b7f646174613a6170706c69636174696f6e2f6a736f6e3b6261736536342c000000600082015250565b7f3c2f646566733e00000000000000000000000000000000000000000000000000600082015250565b7f4552433732313a207472616e736665722063616c6c6572206973206e6f74206f60008201527f776e6572206e6f7220617070726f766564000000000000000000000000000000602082015250565b7f455243373231456e756d657261626c653a20676c6f62616c20696e646578206f60008201527f7574206f6620626f756e64730000000000000000000000000000000000000000602082015250565b7f293b000000000000000000000000000000000000000000000000000000000000600082015250565b7f3c7376672077696474683d2232303022206865696768743d223230302220766960008201527f6577426f783d223020302031303020313030222066696c6c3d226e6f6e65222060208201527f786d6c6e733d22687474703a2f2f7777772e77332e6f72672f323030302f737660408201527f67223e3c646566733e3c7374796c6520747970653d22746578742f637373223e60608201527f40696d706f72742075726c280000000000000000000000000000000000000000608082015250565b7f3c2f7376673e0000000000000000000000000000000000000000000000000000600082015250565b7f3c7465787420783d223530252220793d223330252220616c69676e6d656e742d60008201527f626173656c696e653d226d6964646c652220746578742d616e63686f723d226d60208201527f6964646c65222066696c6c3d22234630463846462220666f6e742d73697a653d60408201527f22387078223e0000000000000000000000000000000000000000000000000000606082015250565b7f227d5d7d00000000000000000000000000000000000000000000000000000000600082015250565b7f646174613a696d6167652f7376672b786d6c3b6261736536342c000000000000600082015250565b61451e816137e1565b811461452957600080fd5b50565b614535816137f3565b811461454057600080fd5b50565b61454c816137ff565b811461455757600080fd5b50565b6145638161384b565b811461456e57600080fd5b5056fe4142434445464748494a4b4c4d4e4f505152535455565758595a6162636465666768696a6b6c6d6e6f707172737475767778797a303132333435363738392b2fa2646970667358221220afb18ff3b19ae845641449d770c4646ece077fea2ab7fcf0076161328c0bc19164736f6c63430008040033",
    "linkReferences": {},
    "deployedLinkReferences": {}
}